:1000000014C023C023C021C020C01FC01EC01DC0FB
:100010001CC01BC01AC019C018C017C016C015C01C
:1000200014C013C012C011C010C011241FBECFE5F0
:10003000D1E0DEBFCDBF20E0A0E6B0E001C01D9260
:10004000AE36B207E1F726D356C3DACF1F920F922E
:100050000FB60F9211248F939F93B79B08C0809186
:1000600066009091670090936500809364009F9173
:100070008F910F900FBE0F901F901895CF93DF9325
:1000800000D0CDB7DEB79C0161E978E023D39A8335
:100090008983232B21F489E494E09A83898388B7A8
:1000A000826088BF80E090E029813A812817390773
:1000B00040F008B601FEFDCF28B7226028BF0196A8
:1000C000F3CF0F900F90DF91CF91089518BA2FE3DF
:1000D00032E48FE0215030408040E1F700C0000062
:1000E0008FE088BB9FE322E43FE091502040304006
:1000F000E1F700C0000018BA9FE322E43FE091500E
:1001000020403040E1F700C0000088BB9FE322E4BC
:100110003FE0915020403040E1F700C0000018BAA5
:100120009FE322E43FE0915020403040E1F700C0DF
:10013000000088BB8FE392E42FE081509040204084
:10014000E1F700C00000089518BA2FE332E48FE011
:10015000215030408040E1F700C000008FE088BBB4
:100160009FE322E43FE0915020403040E1F700C09F
:10017000000018BA9FE322E43FE091502040304055
:10018000E1F700C0000088BB9FE322E43FE091500C
:1001900020403040E1F700C0000018BA9FE322E49D
:1001A0003FE0915020403040E1F700C0000088BBA4
:1001B0009FE322E43FE0915020403040E1F700C04F
:1001C000000018BA9FE322E43FE091502040304005
:1001D000E1F700C0000088BB8FE392E42FE081507C
:1001E00090402040E1F700C0000018BA3FE382E4ED
:1001F0009FE0315080409040E1F700C0000008953A
:1002000080916000909161008233910534F40196F1
:10021000909361008093600004C01092610010927E
:10022000600080916000909161000A9708F054C0CE
:1002300081E088BB2FE332E48FE0215030408040E2
:10024000E1F700C0000018BA9FE322E43FE09150BC
:1002500020403040E1F700C0000084E088BB8FE31D
:1002600092E42FE0815090402040E1F700C0000070
:1002700018BA3FE382E49FE0315080409040E1F7BC
:1002800000C0000082E088BB2FE332E48FE0215001
:1002900030408040E1F700C0000018BA9FE322E43C
:1002A0003FE0915020403040E1F700C0000088E07E
:1002B00088BB8FE392E42FE0815090402040E1F72B
:1002C00000C0000018BA3FE382E49FE03150804054
:1002D0009040E1F700C000008091600090916100C3
:1002E0000A97099708F054C088E088BB2FE332E4EE
:1002F0008FE0215030408040E1F700C0000018BA84
:100300009FE322E43FE0915020403040E1F700C0FD
:10031000000082E088BB8FE392E42FE081509040A0
:100320002040E1F700C0000018BA3FE382E49FE0FC
:10033000315080409040E1F700C0000081E088BB70
:100340002FE332E48FE0215030408040E1F700C0DD
:10035000000018BA9FE322E43FE091502040304073
:10036000E1F700C0000084E088BB8FE392E42FE057
:10037000815090402040E1F700C0000018BA3FE3F0
:1003800082E49FE0315080409040E1F700C00000DF
:1003900080916000909161004497099708F052C0E5
:1003A00084E088BB2FE332E49FE02150304090404E
:1003B000E1F700C0000018BA2FE332E49FE02150BB
:1003C00030409040E1F700C0000088BB2FE332E4EA
:1003D0009FE0215030409040E1F700C0000018BA83
:1003E0002FE332E49FE0215030409040E1F700C01D
:1003F000000098E098BB2FE332E49FE021503040AA
:100400009040E1F700C0000018BA2FE332E49FE00B
:10041000215030409040E1F700C0000088BB2FE33E
:1004200032E48FE0215030408040E1F700C000000E
:1004300018BA9FE322E43FE0915020403040E1F7BA
:1004400000C0000080916000909161004E97099774
:1004500008F052C088E088BB9FE322E43FE091505F
:1004600020403040E1F700C0000018BA9FE322E4CA
:100470003FE0915020403040E1F700C0000088BBD1
:100480008FE392E42FE0815090402040E1F700C0DC
:10049000000018BA3FE382E49FE031508040904072
:1004A000E1F700C0000081E088BB2FE332E49FE069
:1004B000215030409040E1F700C0000018BA2FE30F
:1004C00032E49FE0215030409040E1F700C000004E
:1004D00088BB2FE332E48FE0215030408040E1F7C9
:1004E00000C0000018BA9FE322E43FE09150204092
:1004F0003040E1F700C00000809160009091610001
:100500008897099708F04BC088E088BB8FE392E496
:100510002FE0815090402040E1F700C0000018BA61
:100520003FE382E49FE0315080409040E1F700C01B
:10053000000084E088BB2FE332E48FE0215030409C
:100540008040E1F700C0000018BA9FE322E43FE0DA
:10055000915020403040E1F700C0000082E088BBAD
:100560008FE392E42FE0815090402040E1F700C0FB
:10057000000018BA3FE382E49FE031508040904091
:10058000E1F700C0000081E088BB2FE332E48FE098
:10059000215030408040E1F700C0000018BA0895B3
:1005A000809166009091670082309105E9F034F403
:1005B000009761F0019709F467C0089584309105B0
:1005C000D9F134F1059709F44BC0089586B386B389
:1005D00086B386B387FF59C079DD82E090E09093BF
:1005E00065008093640008950BDE2FE78AE196E0B2
:1005F000215080409040E1F700C0000086B386B3F0
:1006000086B386B381E090E09093650080936400A8
:10061000F7DD2FE38EE795E0215080409040E1F731
:1006200000C0000086B386B386B386B381E090E055
:100630009093650080936400E3DD2FEF81EE94E0FA
:10064000215080409040E1F700C0000086B386B39F
:1006500086B386B381E090E0909365008093640058
:10066000CFDD2FEB85E494E0215080409040E1F70E
:1006700000C0000086B386B386B386B381E090E005
:1006800090936500809364005FDD10926500109286
:10069000640008958FE087BB87B38F7087BB18BA5B
:1006A00010BE13BE83B7856083BF12BE8BB7806454
:1006B0008BBF8BB780688BBF85B7836085BF78940D
:1006C000809164009091650090936700809366002C
:1006D00067DFF6CF0024552704C0080E591F880F86
:1006E000991F009729F076956795B8F37105B9F7CA
:0A06F000802D952F0895F894FFCF98
:00000001FF
